:100000000C9461000C947E000C947E000C947E0095
:100010000C947E000C947E000C947E000C947E0068
:100020000C947E000C947E000C947E000C947E0058
:100030000C947E000C94E4010C947E000C947E00E1
:100040000C949A010C947E000C947E000C947E001B
:100050000C947E000C947E000C947E000C947E0028
:100060000C947E000C947E00000000002400270009
:100070002A0000000000250028002B0000000000DE
:1000800023002600290004040404040404040202DA
:100090000202020203030303030301020408102007
:1000A0004080010204081020010204081020000012
:1000B0000008000201000003040700000000000027
:1000C000000011241FBECFEFD8E0DEBFCDBF11E08E
:1000D000A0E0B1E0EAE1FEE002C005900D92AC3C88
:1000E000B107D9F721E0ACECB1E001C01D92AD3E03
:1000F000B207E1F70E94F8020C940B070C94000081
:10010000833081F028F4813099F08230A9F008958D
:100110008730A9F08830C9F08430B1F48091800034
:100120008F7D03C0809180008F7780938000089539
:1001300084B58F7784BD089584B58F7DFBCF809182
:10014000B0008F778093B00008958091B0008F7DCC
:10015000F9CFCF93DF93282F30E0F901E255FF4F1D
:100160008491F901E656FF4FD491F901EA57FF4F08
:10017000C491CC23A1F081110E948000EC2FF0E00B
:10018000EE0FFF1FE458FF4FA591B491EC91ED23C2
:1001900081E090E009F480E0DF91CF91089580E064
:1001A00090E0FACF1F93CF93DF93282F30E0F9012F
:1001B000E255FF4F8491F901E656FF4FD491F901C2
:1001C000EA57FF4FC491CC23A9F0162F81110E944A
:1001D0008000EC2FF0E0EE0FFF1FEE58FF4FA591CF
:1001E000B4918FB7F894EC91111108C0D095DE232B
:1001F000DC938FBFDF91CF911F910895DE2BF8CF55
:10020000CF93DF9390E0FC01E656FF4F24918A578D
:100210009F4FFC0184918823D1F090E0880F991FB3
:10022000FC01E859FF4FA591B491FC01EE58FF4F36
:10023000C591D491623071F49FB7F8943C91822FAC
:10024000809583238C93E8812E2B28839FBFDF9199
:10025000CF9108958FB7F894EC912E2B2C938FBFEC
:10026000F6CF8E50806480937C0080917A00806409
:1002700080937A0080917A0086FDFCCF809178008F
:100280009091790008953FB7F8948091D7019091AB
:10029000D801A091D901B091DA0126B5A89B05C07B
:1002A0002F3F19F00196A11DB11D3FBFBA2FA92FF5
:1002B000982F8827BC01CD01620F711D811D911DF2
:1002C00042E0660F771F881F991F4A95D1F708955E
:1002D0008F929F92AF92BF92CF92DF92EF92FF9256
:1002E0004B015C010E9443016B017C010E944301B0
:1002F0006C197D098E099F09683E7340810591053F
:10030000A8F321E0821A9108A108B10888EEC80E6E
:1003100083E0D81EE11CF11C81149104A104B104F6
:1003200029F7FF90EF90DF90CF90BF90AF909F9014
:100330008F9008951F920F920FB60F9211242F9352
:100340003F938F939F93AF93BF938091D3019091ED
:10035000D401A091D501B091D6013091D20123E012
:10036000230F2D3758F50196A11DB11D2093D20101
:100370008093D3019093D401A093D501B093D6017B
:100380008091D7019091D801A091D901B091DA0163
:100390000196A11DB11D8093D7019093D801A09320
:1003A000D901B093DA01BF91AF919F918F913F91A5
:1003B0002F910F900FBE0F901F90189526E8230FD6
:1003C0000296A11DB11DD2CF1F920F920FB60F92B0
:1003D0001124CF92DF92EF92FF922F933F934F938E
:1003E0005F936F937F938F939F93AF93BF93EF939D
:1003F000FF938091D0019091D10183369105F4F063
:100400008091CE019091CF01892B09F0A6C080EB9D
:10041000809380001092CD011092CC0185E090E095
:1004200090930101809300018091CE019091CF01C2
:1004300021E082279093CF018093CE01C090DD010F
:10044000D090DE01E090DF01F090E001E091D0017A
:10045000F091D101EE0FFF1FEE5FFE4F60817181C1
:10046000072E000C880B990B0E94E905A701960145
:100470000E949E060E94B1052091CC013091CD01D1
:10048000C901860F971F9093890080938800C090C0
:10049000DD01D090DE01E090DF01F090E001E0911D
:1004A000D001F091D101EE0FFF1FEE5FFE4F608192
:1004B0007181072E000C880B990B0E94E905A7019A
:1004C00096010E949E060E94B10520910001309184
:1004D0000101C901860F971F90938B0080938A00BA
:1004E0008091D0019091D10101969093D101809398
:1004F000D00184369105E4F08BEE90E00197F1F79E
:10050000E090CE01F090CF0160E081E0E816F104C8
:1005100091F58CE00E94D20061E08BE00E94D20055
:10052000F092EC01E092EB011092D1011092D00117
:10053000FF91EF91BF91AF919F918F917F916F91BB
:100540005F914F913F912F91FF90EF90DF90CF906F
:100550000F900FBE0F901F90189580EE8093800033
:1005600085E090E09093CD018093CC011092010141
:100570001092000159CF8BE00E94D20061E08CE024
:100580000E94D2001092EC011092EB01CDCF8C01B1
:100590001092800010926F0085B1817E85B9D0E005
:1005A000C0E061E087E00E94D20061E08DE00E943F
:1005B000D20068EC70E080E090E00E94680160E0AA
:1005C00087E00E94D20060E08DE00E94D20068ECDB
:1005D00070E080E090E00E94680121960C171D07F2
:1005E00001F768EE73E080E090E00E946801D7CFE9
:1005F000CF93DF9300D000D0CDB7DEB7789484B529
:10060000826084BD84B5816084BD85B5826085BD0E
:1006100085B5816085BD80916E00816080936E009C
:10062000109281008091810082608093810080918E
:10063000810081608093810080918000816080933F
:1006400080008091B10084608093B1008091B000FF
:1006500081608093B00080917A00846080937A00FA
:1006600080917A00826080937A0080917A00816024
:1006700080937A0080917A00806880937A0010924B
:10068000C10080EB8093800081E18093810081E054
:1006900080936F0080E293E09093870080938600C0
:1006A00078948EE184B915B861E08DE00E94000174
:1006B00061E088E00E94000161E087E00E940001A3
:1006C00062E082E00E9400018AE097EDA3E2BCE3D1
:1006D0008093DD019093DE01A093DF01B093E001F0
:1006E0008BE490E09A8389836091DD017091DE0153
:1006F0008091DF019091E0012AE037ED43E25CE375
:100700000E94CE046093DD017093DE018093DF01CF
:100710009093E00164E170E080E090E00E94680165
:10072000A981BA811197BA83A983AB2BE9F600E0BE
:1007300010E081E090E09093EC018093EB01409019
:10074000E9015090EA015092E8014092E7018EE001
:100750000E9431019093EA018093E90148165906FD
:100760007CF4893C910534F0A1E0B0E0B093E6015F
:10077000A093E50101151105E1F20E940000D9CF17
:1007800084159505BCF78091E5019091E6010197EC
:1007900089F71092E6011092E501052C000C66081D
:1007A0007708C301B2010E94E9056B017C01C09288
:1007B000E101D092E201E092E301F092E401AC01A8
:1007C0009B0160E070E889E194E40E94CD044B0154
:1007D0005C0120E030E040EA50E40E9499061816DF
:1007E00054F020E030E040EA50ECC501B4010E9432
:1007F0003A0587FF3CC08091DD019091DE01A09118
:10080000DF01B091E00189839A83AB83BC83A701A8
:100810009601C501B4010E943F0529813A814B81AF
:100820005C810E94CE046093DD017093DE018093B1
:10083000DF019093E0016091DD017091DE01809114
:10084000DF019091E0012CEE31E548E75FE30E9483
:100850009906181664F48CEE91E5A8E7BFE380933F
:10086000DD019093DE01A093DF01B093E00180E110
:100870000E9431014C018FE00E9431015C0182E055
:100880000E94A900892B09F470C020E030E047EEF7
:1008900053E4C701B6010E943A0587FD2DC020E050
:1008A00030E045E254E4C701B6010E9499061816EB
:1008B00054F1C301B2010E94E9059B01AC01C701DB
:1008C000B6010E943A05882329F18091DB019091BD
:1008D000DC0101969093DC018093DB01AEEC4A16BB
:1008E000A1E05A066104710409F586399105B4F056
:1008F00082E090E00E94C7029EEC492E552453945A
:10090000612C712CD6CF84E9482E82E0582E612CC0
:10091000712CCFCF1092DC011092DB012CE9A216D2
:1009200023E0B2067CF084E090E0E4CFB4E94B161B
:10093000B2E05B066104710489F70F977CF383E0F2
:1009400090E0D8CF8AEC881681E098061CF485E008
:1009500090E0D0CF95EDA91692E0B9067CF088E042
:100960000E94A90061E0892BA1F01092E101109290
:10097000E2011092E3011092E401FCCEA8EAAA166B
:10098000A2E0BA0694F788E00E94A900019769F7EF
:1009900060E088E00E94D200E8CF5058BB27AA2729
:1009A0000E94E5040C945F060E94510638F00E94F4
:1009B000580620F039F49F3F19F426F40C944E06A3
:1009C0000EF4E095E7FB0C944806E92F0E947006B0
:1009D00058F3BA17620773078407950720F079F474
:1009E000A6F50C9492060EF4E0950B2EBA2FA02DCE
:1009F0000B01B90190010C01CA01A0011124FF27CC
:100A0000591B99F0593F50F4503E68F11A16F040C6
:100A1000A22F232F342F4427585FF3CF46953795C5
:100A20002795A795F0405395C9F77EF41F16BA0B8A
:100A3000620B730B840BBAF09150A1F0FF0FBB1F38
:100A4000661F771F881FC2F70EC0BA0F621F731F81
:100A5000841F48F4879577956795B795F7959E3FDE
:100A600008F0B0CF9395880F08F09927EE0F97956F
:100A7000879508950E94240608F481E008950E9455
:100A800053050C945F060E94580658F00E945106C8
:100A900040F029F45F3F29F00C94480651110C9462
:100AA00093060C944E060E94700668F39923B1F3E6
:100AB000552391F3951B550BBB27AA276217730784
:100AC000840738F09F5F5F4F220F331F441FAA1F18
:100AD000A9F335D00E2E3AF0E0E832D091505040D4
:100AE000E695001CCAF72BD0FE2F29D0660F771F82
:100AF000881FBB1F261737074807AB07B0E809F068
:100B0000BB0B802DBF01FF2793585F4F3AF09E3FEC
:100B1000510578F00C9448060C9493065F3FE4F37B
:100B2000983ED4F3869577956795B795F7959F5F2F
:100B3000C9F7880F911D9695879597F90895E1E07B
:100B4000660F771F881FBB1F621773078407BA07DA
:100B500020F0621B730B840BBA0BEE1F88F7E09535
:100B600008950E94B8056894B1110C9493060895F5
:100B70000E94780688F09F5798F0B92F9927B751AF
:100B8000B0F0E1F0660F771F881F991F1AF0BA9531
:100B9000C9F714C0B13091F00E949206B1E00895F7
:100BA0000C949206672F782F8827B85F39F0B93FE9
:100BB000CCF3869577956795B395D9F73EF49095E4
:100BC0008095709561957F4F8F4F9F4F0895E89462
:100BD00009C097FB3EF490958095709561957F4F85
:100BE0008F4F9F4F9923A9F0F92F96E9BB27939533
:100BF000F695879577956795B795F111F8CFFAF443
:100C0000BB0F11F460FF1BC06F5F7F4F8F4F9F4F73
:100C100016C0882311F096E911C0772321F09EE8D1
:100C2000872F762F05C0662371F096E8862F70E037
:100C300060E02AF09A95660F771F881FDAF7880F11
:100C40009695879597F90895990F0008550FAA0B67
:100C5000E0E8FEEF16161706E807F907C0F01216CF
:100C60001306E407F50798F0621B730B840B950BD2
:100C700039F40A2661F0232B242B252B21F4089527
:100C80000A2609F4A140A6958FEF811D811D0895C4
:100C900097F99F6780E870E060E008959FEF80EC2F
:100CA000089500240A9416161706180609060895D2
:100CB00000240A9412161306140605060895092E38
:100CC0000394000C11F4882352F0BB0F40F4BF2BA7
:100CD00011F460FF04C06F5F7F4F8F4F9F4F0895E7
:100CE00057FD9058440F551F59F05F3F71F04795DD
:100CF000880F97FB991F61F09F3F79F087950895C2
:100D0000121613061406551FF2CF4695F1DF08C0E0
:100D1000161617061806991FF1CF869571056105FD
:100D200008940895E894BB2766277727CB0197F9A5
:100D300008950E94240608F48FEF08950E94B106DA
:100D40000C945F060E94510638F00E94580620F06D
:100D5000952311F00C9448060C944E0611240C9423
:100D600093060E94700670F3959FC1F3950F50E0B3
:100D7000551F629FF001729FBB27F00DB11D639F4D
:100D8000AA27F00DB11DAA1F649F6627B00DA11DF3
:100D9000661F829F2227B00DA11D621F739FB00D99
:100DA000A11D621F839FA00D611D221F749F332709
:100DB000A00D611D231F849F600D211D822F762FA2
:100DC0006A2F11249F5750409AF0F1F088234AF07F
:100DD000EE0FFF1FBB1F661F771F881F91505040EB
:100DE000A9F79E3F510580F00C9448060C94930699
:100DF0005F3FE4F3983ED4F3869577956795B79572
:100E0000F795E7959F5FC1F7FE2B880F911D96958B
:0A0E1000879597F90895F894FFCF35
:100E1A0005000000190032004B0064007D009600B6
:100E2A00AF00C700DF00F7000F0126013E015501A0
:100E3A006B0181019701AD01C201D601EA01FE01F0
:100E4A001102240236024702580268027802870217
:100E5A009602A302B102BD02C902D402DE02E8026E
:100E6A00F102F902000307030D03120316031A0322
:100E7A001C031E032003200320031E031C031A0362
:100E8A00160312030D0307030003F902F102E80235
:100E9A00DE02D402C902BD02B102A302960287028F
:100EAA007802680258024702360224021102FE0141
:100EBA00EA01D601C201AD01970181016B01550119
:100ECA003E0126010F01F700DF00C700AF009600C0
:0C0EDA007D0064004B0032001900000095
:00000001FF
