:100000000C9452000C946F000C946F000C946F00D1
:100010000C946F000C946F000C946F000C946F00A4
:100020000C946F000C946F000C946F000C946F0094
:100030000C946F000C94BB000C946F000C946F0038
:100040000C9471000C946F000C946F000C946F0072
:100050000C946F000C946F000C946F000C946F0064
:100060000C946F000C946F00000000002500280025
:100070002B0000000000240027002A0004040404D0
:100080000404040402020202020203030303030342
:10009000010204081020408001020408102001021F
:1000A0000408102011241FBECFEFD8E0DEBFCDBF63
:1000B00014E0A0E0B1E0E6EEF2E002C005900D929F
:1000C000A032B107D9F724E0A0E2B4E001C01D924C
:1000D000AB32B207E1F70E94FA000C9471010C9464
:1000E00000001F920F920FB60F9211242F933F938F
:1000F0008F939F93AF93BF9380912704909128048F
:10010000A0912904B0912A043091260423E0230F02
:100110002D3758F50196A11DB11D2093260480931B
:10012000270490932804A0932904B0932A04809173
:10013000220490912304A0912404B09125040196F7
:10014000A11DB11D8093220490932304A093240445
:10015000B0932504BF91AF919F918F913F912F91C3
:100160000F900FBE0F901F90189526E8230F029650
:10017000A11DB11DD2CF1F920F920FB60F92112465
:100180008F939F93EF93FF93E0912004F0912104CC
:10019000EE0FFF1FE057FD4F808191819093890002
:1001A00080938800E0912004F0912104EE0FFF1F5E
:1001B000E050FF4F8081918190938B0080938A0063
:1001C00080912004909121040196883C91056CF463
:1001D0009093210480932004FF91EF919F918F9140
:1001E0000F900FBE0F901F9018951092210410923F
:1001F0002004F2CF789484B5826084BD84B5816098
:1002000084BD85B5826085BD85B5816085BD8091E1
:100210006E00816080936E00109281008091810059
:100220008260809381008091810081608093810051
:10023000809180008160809380008091B100846013
:100240008093B1008091B00081608093B000809174
:100250007A00846080937A0080917A008260809333
:100260007A0080917A00816080937A0080917A0090
:10027000806880937A001092C10082EA80938000A7
:1002800089E18093810081E080936F0080E496E0B3
:100290009093870080938600789486E084B9EDE996
:1002A000F0E02491E9E8F0E08491882399F090E06F
:1002B000880F991FFC01EE58FF4FA591B491FC01E6
:1002C000E859FF4F859194918FB7F894EC91E22B08
:1002D000EC938FBFC0E0D0E02097F1F30E940000C4
:0602E000FBCFF894FFCFF4
:1002E6000000000000000000000000000000000008
:1002F60000000000000000000000000000000000F8
:1003060000000000000000000000000000000000E7
:1003160000000000000000000000000000000000D7
:1003260000000000000000000000000000000000C7
:1003360000000000000000000000000000000000B7
:1003460000000000000000000000000000000000A7
:100356000000000000000000000000000000000097
:100366000000000000000000000000000000000087
:100376000000000000000000000000000000000077
:100386000000000000000000000000000000000067
:100396000000000000000000000000000000000057
:1003A6000000000000000000320064009700C90051
:1003B600FA002C015D018E01BE01EE011E024D0206
:1003C6007B02A902D60203032E0359038303AC035F
:1003D600D503FC03220447046B048E04B004D10445
:1003E600F0040E052B05470561057A059205A8055B
:1003F600BC05D005E105F20500060E061906240621
:100406002C06330639063D063F0640063F063D06E6
:10041600390633062C06240619060E060006F205D2
:10042600E105D005BC05A80592057A0561054705D5
:100436002B050E05F004D104B0048E046B044704AA
:100446002204FC03D503AC03830359032E030303E1
:10045600D602A9027B024D021E02EE01BE018E01EA
:100466005D012C01FA00C90097006400320000000B
:10047600320064009700C900FA002C015D018E016C
:10048600BE01EE011E024D027B02A902D602030343
:100496002E0359038303AC03D503FC03220447044C
:1004A6006B048E04B004D104F0040E052B05470539
:1004B60061057A059205A805BC05D005E105F2059A
:1004C60000060E06190624062C06330639063D06D6
:1004D6003F0640063F063D06390633062C0624062F
:1004E60019060E060006F205E105D005BC05A805AD
:1004F60092057A05610547052B050E05F004D10422
:10050600B0048E046B0447042204FC03D503AC0339
:10051600830359032E030303D602A9027B024D026D
:100526001E02EE01BE018E015D012C01FA00C9001A
:100536009700640032000000000000000000000088
:1005460000000000000000000000000000000000A5
:100556000000000000000000000000000000000095
:100566000000000000000000000000000000000085
:100576000000000000000000000000000000000075
:100586000000000000000000000000000000000065
:100596000000000000000000000000000000000055
:1005A6000000000000000000000000000000000045
:1005B6000000000000000000000000000000000035
:1005C6000000000000000000000000000000000025
:1005D6000000000000000000000000000000000015
:1005E6000000000000000000000000000000000005
:1005F60000000000000000000000000000000000F5
:00000001FF
