:020000040000FA
:100000000C9452000C946F000C946F000C946F00D1
:100010000C946F000C946F000C946F000C946F00A4
:100020000C946F000C946F000C946F000C946F0094
:100030000C946F000C94BB000C946F000C946F0038
:100040000C9471000C946F000C946F000C946F0072
:100050000C946F000C946F000C946F000C946F0064
:100060000C946F000C946F00000000002500280025
:100070002B0000000000240027002A0004040404D0
:100080000404040402020202020203030303030342
:10009000010204081020408001020408102001021F
:1000A0000408102011241FBECFEFD8E0DEBFCDBF63
:1000B00014E0A0E0B1E0E6EEF2E002C005900D929F
:1000C000A032B107D9F724E0A0E2B4E001C01D924C
:1000D000AB32B207E1F70E94FA000C9471010C9464
:1000E00000001F920F920FB60F9211242F933F938F
:1000F0008F939F93AF93BF9380912704909128048F
:10010000A0912904B0912A043091260423E0230F02
:100110002D3758F50196A11DB11D2093260480931B
:10012000270490932804A0932904B0932A04809173
:10013000220490912304A0912404B09125040196F7
:10014000A11DB11D8093220490932304A093240445
:10015000B0932504BF91AF919F918F913F912F91C3
:100160000F900FBE0F901F90189526E8230F029650
:10017000A11DB11DD2CF1F920F920FB60F92112465
:100180008F939F93EF93FF93E0912004F0912104CC
:10019000EE0FFF1FE057FD4F808191819093890002
:1001A00080938800E0912004F0912104EE0FFF1F5E
:1001B000E050FF4F8081918190938B0080938A0063
:1001C00080912004909121040196883C91056CF463
:1001D0009093210480932004FF91EF919F918F9140
:1001E0000F900FBE0F901F9018951092210410923F
:1001F0002004F2CF789484B5826084BD84B5816098
:1002000084BD85B5826085BD85B5816085BD8091E1
:100210006E00816080936E00109281008091810059
:100220008260809381008091810081608093810051
:10023000809180008160809380008091B100846013
:100240008093B1008091B00081608093B000809174
:100250007A00846080937A0080917A008260809333
:100260007A0080917A00816080937A0080917A0090
:10027000806880937A001092C10082EA80938000A7
:1002800089E18093810081E080936F0080E496E0B3
:100290009093870080938600789486E084B9EDE996
:1002A000F0E02491E9E8F0E08491882399F090E06F
:1002B000880F991FFC01EE58FF4FA591B491FC01E6
:1002C000E859FF4F859194918FB7F894EC91E22B08
:1002D000EC938FBFC0E0D0E02097F1F30E940000C4
:1002E000FBCFF894FFCF00000000000000000000EA
:1002F00000000000000000000000000000000000FE
:1003000000000000000000000000000000000000ED
:1003100000000000000000000000000000000000DD
:1003200000000000000000000000000000000000CD
:1003300000000000000000000000000000000000BD
:1003400000000000000000000000000000000000AD
:10035000000000000000000000000000000000009D
:10036000000000000000000000000000000000008D
:10037000000000000000000000000000000000007D
:10038000000000000000000000000000000000006D
:10039000000000000000000000000000000000005D
:1003A000000000000000000000000000000032001B
:1003B00064009700C900FA002C015D018E01BE01A6
:1003C000EE011E024D027B02A902D60203032E0398
:1003D00059038303AC03D503FC03220447046B04D5
:1003E0008E04B004D104F0040E052B054705610509
:1003F0007A059205A805BC05D005E105F2050006C1
:100400000E06190624062C06330639063D063F065D
:1004100040063F063D06390633062C06240619061B
:100420000E060006F205E105D005BC05A8059205FB
:100430007A05610547052B050E05F004D104B004CB
:100440008E046B0447042204FC03D503AC0383032E
:1004500059032E030303D602A9027B024D021E029A
:10046000EE01BE018E015D012C01FA00C90097006A
:10047000640032000000320064009700C900FA00F6
:100480002C015D018E01BE01EE011E024D027B02B8
:10049000A902D60203032E0359038303AC03D50339
:1004A000FC03220447046B048E04B004D104F0045E
:1004B0000E052B05470561057A059205A805BC05C3
:1004C000D005E105F20500060E06190624062C06E5
:1004D000330639063D063F0640063F063D0639060F
:1004E00033062C06240619060E060006F205E10561
:1004F000D005BC05A80592057A05610547052B05C1
:100500000E05F004D104B0048E046B0447042204E9
:10051000FC03D503AC03830359032E030303D60264
:10052000A9027B024D021E02EE01BE018E015D0199
:100530002C01FA00C900970064003200000000009E
:1005400000000000000000000000000000000000AB
:10055000000000000000000000000000000000009B
:10056000000000000000000000000000000000008B
:10057000000000000000000000000000000000007B
:10058000000000000000000000000000000000006B
:10059000000000000000000000000000000000005B
:1005A000000000000000000000000000000000004B
:1005B000000000000000000000000000000000003B
:1005C000000000000000000000000000000000002B
:1005D000000000000000000000000000000000001B
:1005E000000000000000000000000000000000000B
:1005F00000000000000000000000000000000000FB
:06060000000000000000F4
:107E0000112484B714BE81FFF0D085E080938100F7
:107E100082E08093C00088E18093C10086E0809377
:107E2000C20080E18093C4008EE0C9D0259A86E02C
:107E300020E33CEF91E0309385002093840096BBD3
:107E4000B09BFECF1D9AA8958150A9F7CC24DD24C4
:107E500088248394B5E0AB2EA1E19A2EF3E0BF2EE7
:107E6000A2D0813461F49FD0082FAFD0023811F036
:107E7000013811F484E001C083E08DD089C08234E0
:107E800011F484E103C0853419F485E0A6D080C0E4
:107E9000853579F488D0E82EFF2485D0082F10E0AE
:107EA000102F00270E291F29000F111F8ED06801E7
:107EB0006FC0863521F484E090D080E0DECF843638
:107EC00009F040C070D06FD0082F6DD080E0C81688
:107ED00080E7D80618F4F601B7BEE895C0E0D1E017
:107EE00062D089930C17E1F7F0E0CF16F0E7DF06D8
:107EF00018F0F601B7BEE89568D007B600FCFDCFD4
:107F0000A601A0E0B1E02C9130E011968C91119780
:107F100090E0982F8827822B932B1296FA010C0160
:107F200087BEE89511244E5F5F4FF1E0A038BF0790
:107F300051F7F601A7BEE89507B600FCFDCF97BE46
:107F4000E89526C08437B1F42ED02DD0F82E2BD052
:107F50003CD0F601EF2C8F010F5F1F4F84911BD097
:107F6000EA94F801C1F70894C11CD11CFA94CF0C13
:107F7000D11C0EC0853739F428D08EE10CD085E9AC
:107F80000AD08FE07ACF813511F488E018D01DD067
:107F900080E101D065CF982F8091C00085FFFCCF94
:107FA0009093C60008958091C00087FFFCCF809118
:107FB000C00084FD01C0A8958091C6000895E0E648
:107FC000F0E098E1908380830895EDDF803219F02E
:107FD00088E0F5DFFFCF84E1DECF1F93182FE3DFCA
:107FE0001150E9F7F2DF1F91089580E0E8DFEE27F6
:047FF000FF270994CA
:027FFE00040479
:00000001FF
