:100000000C9453000C947B000C947B000C947B00AC
:100010000C947B000C947B000C947B000C947B0074
:100020000C947B000C947B000C947B000C944B0292
:100030000C947B000C947B000C947B000C947B0054
:100040000C94A9010C947B000C9419020C94F301FC
:100050000C947B000C947B000C947B000C947B0034
:100060000C947B000C947B0000000000250028000D
:100070002B0000000000240027002A0004040404D0
:100080000404040402020202020203030303030342
:10009000010204081020408001020408102001021F
:1000A000040810205D0311241FBECFEFD8E0DEBF8F
:1000B000CDBF13E0A0E0B1E0E4E2F7E002C00590BC
:1000C0000D92AA31B107D9F723E0AAE1B3E001C04C
:1000D0001D92A63CB207E1F710E0C3E5D0E004C0F2
:1000E0002197FE010E948A03C235D107C9F70E94F9
:1000F000B5020C9490030C94000090E0FC01E057D2
:10010000FF4F249184589F4FFC018491882399F0DC
:1001100090E0880F991FFC01EE58FF4FA591B49114
:10012000FC01E859FF4F859194918FB7F894EC91B9
:10013000E22BEC938FBF0895AF92BF92CF92DF92E4
:10014000EF92FF920F931F93CF93DF936C017B018C
:100150008B01040F151FEB015E01AE18BF08C0171D
:10016000D10759F06991D601ED91FC910190F08190
:10017000E02DC6010995892B79F7C501DF91CF9153
:100180001F910F91FF90EF90DF90CF90BF90AF90B5
:100190000895FC01538D448D252F30E0842F90E08D
:1001A000821B930B541710F0CF9608950197089572
:1001B000FC01918D828D981761F0A28DAE0FBF2F3B
:1001C000B11D5D968C91928D9F5F9F73928F90E091
:1001D00008958FEF9FEF0895FC01918D828D981700
:1001E00031F0828DE80FF11D858D90E008958FEF3D
:1001F0009FEF0895FC01918D228D892F90E0805C06
:100200009F4F821B91098F739927089580E293E095
:100210000E94FA0021E0892B09F420E0822F089542
:1002200080E090E0892B29F00E94060181110C9456
:1002300000000895FC01A48DA80FB92FB11DA35A89
:10024000BF4F2C91848D90E001968F739927848FF6
:10025000A689B7892C93A089B1898C918370806419
:100260008C93938D848D981306C00288F389E02DBA
:1002700080818F7D80830895EF92FF920F931F936B
:10028000CF93DF93EC0181E0888F9B8D8C8D981349
:100290001AC0E889F989808185FF15C09FB7F89455
:1002A000EE89FF896083E889F989808183708064A1
:1002B00080839FBF81E090E0DF91CF911F910F91EC
:1002C000FF90EF900895F62E0B8D10E00F5F1F4FFB
:1002D0000F731127E02E8C8D8E110CC00FB607FC0A
:1002E000FACFE889F989808185FFF5CFCE010E9498
:1002F0001A01F1CFEB8DEC0FFD2FF11DE35AFF4FEB
:10030000F0829FB7F8940B8FEA89FB898081806225
:10031000CFCFCF93DF93EC01888D8823B9F0AA89E2
:10032000BB89E889F9898C9185FD03C0808186FDB0
:100330000DC00FB607FCF7CF8C9185FFF2CF8081FF
:1003400085FFEDCFCE010E941A01E9CFDF91CF9159
:1003500008951F920F920FB60F9211242F933F937F
:100360008F939F93AF93BF938091C2039091C303E8
:10037000A091C403B091C5033091C10323E0230FC2
:100380002D3758F50196A11DB11D2093C10380930F
:10039000C2039093C303A093C403B093C503809199
:1003A000BD039091BE03A091BF03B091C00301961D
:1003B000A11DB11D8093BD039093BE03A093BF0305
:1003C000B093C003BF91AF919F918F913F912F91B7
:1003D0000F900FBE0F901F90189526E8230F0296DE
:1003E000A11DB11DD2CF1F920F920FB60F921124F3
:1003F0002F933F934F935F936F937F938F939F932D
:10040000AF93BF93EF93FF9380E293E00E941A01B2
:10041000FF91EF91BF91AF919F918F917F916F91DC
:100420005F914F913F912F910F900FBE0F901F90B2
:1004300018951F920F920FB60F9211242F938F933E
:100440009F93EF93FF93E0913003F091310380810C
:10045000E0913603F091370382FD1BC090818091BB
:1004600039038F5F8F7320913A03821741F0E09137
:100470003903F0E0E05EFC4F958F80933903FF91E4
:10048000EF919F918F912F910F900FBE0F901F9022
:1004900018958081F4CF1F920F920FB60F921124FE
:1004A0002F933F938F939F93EF93FF9380911E031E
:1004B00090911F038530914084F080911C039091AE
:1004C0001D03892B51F410921F0310921E0381E02B
:1004D00090E090931D0380931C0380911E039091E4
:1004E0001F038530914074F080911C0390911D038F
:1004F000019741F410921F0310921E0310921D03E6
:1005000010921C0380911E0390911F03FC01EE0FBB
:10051000FF1FE050FF4F2081318130931B03209358
:100520001A03019690931F0380931E0380911C036E
:1005300090911D03892B21F418BC80911A0387BD6B
:1005400080911C0390911D03019721F417BC8091A9
:100550001A0388BDFF91EF919F918F913F912F9149
:100560000F900FBE0F901F901895789484B58260FD
:1005700084BD84B5816084BD85B5826085BD85B547
:10058000816085BD80916E00816080936E001092C5
:100590008100809181008260809381008091810040
:1005A00081608093810080918000816080938000D1
:1005B0008091B10084608093B1008091B00081602F
:1005C0008093B00080917A00846080937A0080915B
:1005D0007A00826080937A0080917A0081608093B3
:1005E0007A0080917A00806880937A001092C1002E
:1005F000E0913003F091310382E08083E0912C039D
:10060000F0912D031082E0912E03F0912F038FECD7
:10061000808310923803E0913403F091350386E033
:100620008083E0913203F091330380818061808385
:10063000E0913203F0913303808188608083E09100
:100640003203F0913303808180688083E09132032C
:10065000F091330380818F7D808385E00E947D004F
:1006600086E00E947D00F89414BC15BC16BC81EA9B
:1006700084BD81E085BD10928000109281001092AF
:100680008500109284008DEF91E090938900809313
:10069000880089E08093810080916F008260809360
:1006A0006F007894C0E0D0E02097F1F30E9406013B
:1006B0008823D1F30E940000F7CFE0E2F3E0138239
:1006C000128288EE93E0A0E0B0E084839583A68355
:1006D000B7838CE093E09183808385EC90E09587ED
:1006E000848784EC90E09787868780EC90E0918BFC
:1006F000808B81EC90E0938B828B82EC90E0958BE9
:10070000848B86EC90E0978B868B118E128E138EE5
:10071000148E0895EE0FFF1F0590F491E02D0994BB
:04072000F894FFCF7B
:1007240001000300060009000C000F001200150070
:1007340018001A001D0020002300260029002C00A8
:100744002F003200350038003B003E0041004400D9
:10075400470049004C004F005200550058005B0010
:100764005D0060006300660068006B006E0070004E
:100774007300760078007B007E0080008300850093
:1007840088008A008D008F009200940097009900E1
:100794009B009E00A000A200A500A700A900AB003A
:1007A400AD00B000B200B400B600B800BA00BC009E
:1007B400BE00C000C200C400C500C700C900CB0011
:1007C400CD00CE00D000D200D300D500D600D80092
:1007D400D900DB00DC00DE00DF00E000E200E30023
:1007E400E400E500E600E800E900EA00EB00EC00C4
:1007F400ED00EE00EF00EF00F000F100F200F30076
:10080400F300F400F400F500F600F600F700F7003A
:10081400F700F800F800F800F900F900F900F90011
:10082400F900F900F900F900F900F900F900F900FC
:10083400F800F800F800F700F700F700F600F600FB
:10084400F500F400F400F300F300F200F100F0000E
:10085400EF00EF00EE00ED00EC00EB00EA00E90031
:10086400E800E600E500E400E300E200E000DF0069
:10087400DE00DC00DB00D900D800D600D500D300B0
:10088400D200D000CE00CD00CB00C900C700C50007
:10089400C400C200C000BE00BC00BA00B800B6006C
:1008A400B400B200B000AD00AB00A900A700A500E1
:1008B400A200A0009E009B00990097009400920063
:1008C4008F008D008A0088008500830080007E00F0
:1008D4007B0078007600730070006E006B00680087
:1008E4006600630060005D005B0058005500520024
:1008F4004F004C0049004700440041003E003B00CB
:100904003800350032002F002C0029002600230077
:1009140020001D001A001800150012000F000C0022
:100924000900060003000100000000003C019C00D7
:0A093400C9008901FA00D800EC00A8
:00000001FF
