:100000000C9452000C946F000C946F000C946F00D1
:100010000C946F000C946F000C946F000C946F00A4
:100020000C946F000C946F000C946F000C946F0094
:100030000C946F000C94BB000C946F000C946F0038
:100040000C9471000C946F000C946F000C946F0072
:100050000C946F000C946F000C946F000C946F0064
:100060000C946F000C946F00000000002500280025
:100070002B0000000000240027002A0004040404D0
:100080000404040402020202020203030303030342
:10009000010204081020408001020408102001021F
:1000A0000408102011241FBECFEFD8E0DEBFCDBF63
:1000B00011E0A0E0B1E0E8E5F3E002C005900D92A8
:1000C000A034B107D9F721E0A0E4B1E001C01D924E
:1000D000A335B207E1F70E941C010C94AA010C940D
:1000E00000001F920F920FB60F9211242F933F938F
:1000F0008F939F93AF93BF9380914F019091500145
:10010000A0915101B091520130914E0123E0230F93
:100110002D3758F50196A11DB11D20934E018093F6
:100120004F0190935001A0935101B09352018091DF
:100130004A0190914B01A0914C01B0914D01019663
:10014000A11DB11D80934A0190934B01A0934C01D6
:10015000B0934D01BF91AF919F918F913F912F919E
:100160000F900FBE0F901F90189526E8230F029650
:10017000A11DB11DD2CF1F920F920FB60F92112465
:100180002F933F938F939F93EF93FF93809144011D
:10019000909145012091480130914901820F931FB0
:1001A0009093450180934401209142013091430195
:1001B0008217930770F48091400190914101892B3F
:1001C000A1F586E08BB981E090E0909341018093A6
:1001D000400120914501822F86958695869590E075
:1001E000880F991FFC01E050FF4F9081818190930F
:1001F00046018093470180938900809146018F706A
:10020000809388008091440190914501909343012F
:1002100080934201FF91EF919F918F913F912F9198
:100220000F900FBE0F901F90189589E08BB9109218
:10023000410110924001CDCF789484B5826084BD95
:1002400084B5816084BD85B5826085BD85B58160DA
:1002500085BD80916E00816080936E001092810058
:100260008091810082608093810080918100816013
:1002700080938100809180008160809380008091D4
:10028000B10084608093B1008091B0008160809360
:10029000B00080917A00846080937A0080917A0027
:1002A000826080937A0080917A00816080937A00E6
:1002B00080917A00806880937A001092C1008AE968
:1002C00091E0909349018093480110924701109268
:1002D0004601109245011092440110924301109280
:1002E00042018FEF87B98AB9109289001092880075
:1002F00082E88093800083E08093870087EE80937C
:10030000860081E080936F0089E180938100E9E9B4
:10031000F0E02491E5E8F0E08491882399F090E002
:10032000880F991FFC01EE58FF4FA591B491FC0175
:10033000E859FF4F859194918FB7F894EC91E22B97
:10034000EC938FBF7894C0E0D0E02097F1F30E9447
:080350000000FBCFF894FFCF81
:1003580000006400C70028018601E001360285021A
:10036800CE020F0348037903A003BE03D303DD03C2
:10037800DD03D303BE03A003790348030F03CE02B2
:1003880085023602E00186012801C70064000000EA
:00000001FF
