:020000040000FA
:100000000C9452000C946F000C946F000C946F00D1
:100010000C946F000C946F000C946F000C946F00A4
:100020000C946F000C946F000C946F000C946F0094
:100030000C946F000C94BB000C946F000C946F0038
:100040000C9471000C946F000C946F000C946F0072
:100050000C946F000C946F000C946F000C946F0064
:100060000C946F000C946F00000000002500280025
:100070002B0000000000240027002A0004040404D0
:100080000404040402020202020203030303030342
:10009000010204081020408001020408102001021F
:1000A0000408102011241FBECFEFD8E0DEBFCDBF63
:1000B00011E0A0E0B1E0E8E5F3E002C005900D92A8
:1000C000A034B107D9F721E0A0E4B1E001C01D924E
:1000D000A335B207E1F70E941C010C94AA010C940D
:1000E00000001F920F920FB60F9211242F933F938F
:1000F0008F939F93AF93BF9380914F019091500145
:10010000A0915101B091520130914E0123E0230F93
:100110002D3758F50196A11DB11D20934E018093F6
:100120004F0190935001A0935101B09352018091DF
:100130004A0190914B01A0914C01B0914D01019663
:10014000A11DB11D80934A0190934B01A0934C01D6
:10015000B0934D01BF91AF919F918F913F912F919E
:100160000F900FBE0F901F90189526E8230F029650
:10017000A11DB11DD2CF1F920F920FB60F92112465
:100180002F933F938F939F93EF93FF93809144011D
:10019000909145012091480130914901820F931FB0
:1001A0009093450180934401209142013091430195
:1001B0008217930770F48091400190914101892B3F
:1001C000A1F586E08BB981E090E0909341018093A6
:1001D000400120914501822F86958695869590E075
:1001E000880F991FFC01E050FF4F9081818190930F
:1001F00046018093470180938900809146018F706A
:10020000809388008091440190914501909343012F
:1002100080934201FF91EF919F918F913F912F9198
:100220000F900FBE0F901F90189589E08BB9109218
:10023000410110924001CDCF789484B5826084BD95
:1002400084B5816084BD85B5826085BD85B58160DA
:1002500085BD80916E00816080936E001092810058
:100260008091810082608093810080918100816013
:1002700080938100809180008160809380008091D4
:10028000B10084608093B1008091B0008160809360
:10029000B00080917A00846080937A0080917A0027
:1002A000826080937A0080917A00816080937A00E6
:1002B00080917A00806880937A001092C1008AE968
:1002C00091E0909349018093480110924701109268
:1002D0004601109245011092440110924301109280
:1002E00042018FEF87B98AB9109289001092880075
:1002F00082E88093800083E08093870087EE80937C
:10030000860081E080936F0089E180938100E9E9B4
:10031000F0E02491E5E8F0E08491882399F090E002
:10032000880F991FFC01EE58FF4FA591B491FC0175
:10033000E859FF4F859194918FB7F894EC91E22B97
:10034000EC938FBF7894C0E0D0E02097F1F30E9447
:100350000000FBCFF894FFCF00006400C700280125
:100360008601E00136028502CE020F0348037903BD
:10037000A003BE03D303DD03DD03D303BE03A00349
:10038000790348030F03CE0285023602E00186019D
:080390002801C7006400000011
:107E0000112484B714BE81FFF0D085E080938100F7
:107E100082E08093C00088E18093C10086E0809377
:107E2000C20080E18093C4008EE0C9D0259A86E02C
:107E300020E33CEF91E0309385002093840096BBD3
:107E4000B09BFECF1D9AA8958150A9F7CC24DD24C4
:107E500088248394B5E0AB2EA1E19A2EF3E0BF2EE7
:107E6000A2D0813461F49FD0082FAFD0023811F036
:107E7000013811F484E001C083E08DD089C08234E0
:107E800011F484E103C0853419F485E0A6D080C0E4
:107E9000853579F488D0E82EFF2485D0082F10E0AE
:107EA000102F00270E291F29000F111F8ED06801E7
:107EB0006FC0863521F484E090D080E0DECF843638
:107EC00009F040C070D06FD0082F6DD080E0C81688
:107ED00080E7D80618F4F601B7BEE895C0E0D1E017
:107EE00062D089930C17E1F7F0E0CF16F0E7DF06D8
:107EF00018F0F601B7BEE89568D007B600FCFDCFD4
:107F0000A601A0E0B1E02C9130E011968C91119780
:107F100090E0982F8827822B932B1296FA010C0160
:107F200087BEE89511244E5F5F4FF1E0A038BF0790
:107F300051F7F601A7BEE89507B600FCFDCF97BE46
:107F4000E89526C08437B1F42ED02DD0F82E2BD052
:107F50003CD0F601EF2C8F010F5F1F4F84911BD097
:107F6000EA94F801C1F70894C11CD11CFA94CF0C13
:107F7000D11C0EC0853739F428D08EE10CD085E9AC
:107F80000AD08FE07ACF813511F488E018D01DD067
:107F900080E101D065CF982F8091C00085FFFCCF94
:107FA0009093C60008958091C00087FFFCCF809118
:107FB000C00084FD01C0A8958091C6000895E0E648
:107FC000F0E098E1908380830895EDDF803219F02E
:107FD00088E0F5DFFFCF84E1DECF1F93182FE3DFCA
:107FE0001150E9F7F2DF1F91089580E0E8DFEE27F6
:047FF000FF270994CA
:027FFE00040479
:00000001FF
